{
  "contractName": "ARWithIoT",
  "abi": [
    {
      "inputs": [],
      "stateMutability": "nonpayable",
      "type": "constructor"
    },
    {
      "inputs": [
        {
          "internalType": "string",
          "name": "username",
          "type": "string"
        },
        {
          "internalType": "string",
          "name": "password",
          "type": "string"
        }
      ],
      "name": "addUser",
      "outputs": [],
      "stateMutability": "nonpayable",
      "type": "function"
    },
    {
      "inputs": [],
      "name": "viewUsers",
      "outputs": [
        {
          "internalType": "string[]",
          "name": "",
          "type": "string[]"
        },
        {
          "internalType": "string[]",
          "name": "",
          "type": "string[]"
        }
      ],
      "stateMutability": "view",
      "type": "function",
      "constant": true
    },
    {
      "inputs": [
        {
          "internalType": "int256",
          "name": "value1",
          "type": "int256"
        },
        {
          "internalType": "int256",
          "name": "value2",
          "type": "int256"
        },
        {
          "internalType": "int256",
          "name": "value3",
          "type": "int256"
        }
      ],
      "name": "ARWithIoTADXL",
      "outputs": [
        {
          "internalType": "int256",
          "name": "",
          "type": "int256"
        }
      ],
      "stateMutability": "pure",
      "type": "function",
      "constant": true
    },
    {
      "inputs": [
        {
          "internalType": "int256",
          "name": "value1",
          "type": "int256"
        },
        {
          "internalType": "int256",
          "name": "value2",
          "type": "int256"
        }
      ],
      "name": "ARWithIoTBMP180",
      "outputs": [
        {
          "internalType": "int256",
          "name": "",
          "type": "int256"
        }
      ],
      "stateMutability": "pure",
      "type": "function",
      "constant": true
    },
    {
      "inputs": [
        {
          "internalType": "int256",
          "name": "value1",
          "type": "int256"
        },
        {
          "internalType": "int256",
          "name": "value2",
          "type": "int256"
        }
      ],
      "name": "ARWithIoTLDRandIR",
      "outputs": [
        {
          "internalType": "int256",
          "name": "",
          "type": "int256"
        }
      ],
      "stateMutability": "pure",
      "type": "function",
      "constant": true
    }
  ],
  "bytecode": "0x608060405234801561001057600080fd5b50610c91806100206000396000f3fe608060405234801561001057600080fd5b50600436106100575760003560e01c8063079eaf341461005c57806314ebdb79146100785780638645c84b146100975780638ee7a702146100c7578063b05cc0dd146100f7575b600080fd5b6100766004803603810190610071919061063d565b610127565b005b610080610202565b60405161008e9291906107f6565b60405180910390f35b6100b160048036038101906100ac9190610863565b6103b7565b6040516100be91906108b2565b60405180910390f35b6100e160048036038101906100dc9190610863565b61041e565b6040516100ee91906108b2565b60405180910390f35b610111600480360381019061010c91906108cd565b610465565b60405161011e91906108b2565b60405180910390f35b600282604051610137919061095c565b908152602001604051809103902060009054906101000a900460ff161561015d57600080fd5b6000829080600181540180825580915050600190039060005260206000200160009091909190915090816101919190610b89565b506001819080600181540180825580915050600190039060005260206000200160009091909190915090816101c69190610b89565b5060016002836040516101d9919061095c565b908152602001604051809103902060006101000a81548160ff0219169083151502179055505050565b6060806000600181805480602002602001604051908101604052809291908181526020016000905b828210156102d6578382906000526020600020018054610249906109a2565b80601f0160208091040260200160405190810160405280929190818152602001828054610275906109a2565b80156102c25780601f10610297576101008083540402835291602001916102c2565b820191906000526020600020905b8154815290600101906020018083116102a557829003601f168201915b50505050508152602001906001019061022a565b50505050915080805480602002602001604051908101604052809291908181526020016000905b828210156103a957838290600052602060002001805461031c906109a2565b80601f0160208091040260200160405190810160405280929190818152602001828054610348906109a2565b80156103955780601f1061036a57610100808354040283529160200191610395565b820191906000526020600020905b81548152906001019060200180831161037857829003601f168201915b5050505050815260200190600101906102fd565b505050509050915091509091565b60006001831480156103c95750600082145b156103d75760019050610418565b6001831480156103e75750600082145b156103f55760029050610418565b6001831480156104055750600182145b156104135760039050610418565b600090505b92915050565b600062018a7e83138015610434575062018bb483125b801561044c5750601f8213801561044b5750602382125b5b1561045a576001905061045f565b600090505b92915050565b600060018412801561049757507fffffffffffffffffffffffffffffffffffffffffffffffffffffffffffffffff8412155b80156104b057506002831280156104af575060008312155b5b80156104c95750600a821280156104c8575060098212155b5b156104d757600190506104dc565b600090505b9392505050565b6000604051905090565b600080fd5b600080fd5b600080fd5b600080fd5b6000601f19601f8301169050919050565b7f4e487b7100000000000000000000000000000000000000000000000000000000600052604160045260246000fd5b61054a82610501565b810181811067ffffffffffffffff8211171561056957610568610512565b5b80604052505050565b600061057c6104e3565b90506105888282610541565b919050565b600067ffffffffffffffff8211156105a8576105a7610512565b5b6105b182610501565b9050602081019050919050565b82818337600083830152505050565b60006105e06105db8461058d565b610572565b9050828152602081018484840111156105fc576105fb6104fc565b5b6106078482856105be565b509392505050565b600082601f830112610624576106236104f7565b5b81356106348482602086016105cd565b91505092915050565b60008060408385031215610654576106536104ed565b5b600083013567ffffffffffffffff811115610672576106716104f2565b5b61067e8582860161060f565b925050602083013567ffffffffffffffff81111561069f5761069e6104f2565b5b6106ab8582860161060f565b9150509250929050565b600081519050919050565b600082825260208201905092915050565b6000819050602082019050919050565b600081519050919050565b600082825260208201905092915050565b60005b8381101561071b578082015181840152602081019050610700565b60008484015250505050565b6000610732826106e1565b61073c81856106ec565b935061074c8185602086016106fd565b61075581610501565b840191505092915050565b600061076c8383610727565b905092915050565b6000602082019050919050565b600061078c826106b5565b61079681856106c0565b9350836020820285016107a8856106d1565b8060005b858110156107e457848403895281516107c58582610760565b94506107d083610774565b925060208a019950506001810190506107ac565b50829750879550505050505092915050565b600060408201905081810360008301526108108185610781565b905081810360208301526108248184610781565b90509392505050565b6000819050919050565b6108408161082d565b811461084b57600080fd5b50565b60008135905061085d81610837565b92915050565b6000806040838503121561087a576108796104ed565b5b60006108888582860161084e565b92505060206108998582860161084e565b9150509250929050565b6108ac8161082d565b82525050565b60006020820190506108c760008301846108a3565b92915050565b6000806000606084860312156108e6576108e56104ed565b5b60006108f48682870161084e565b93505060206109058682870161084e565b92505060406109168682870161084e565b9150509250925092565b600081905092915050565b6000610936826106e1565b6109408185610920565b93506109508185602086016106fd565b80840191505092915050565b6000610968828461092b565b915081905092915050565b7f4e487b7100000000000000000000000000000000000000000000000000000000600052602260045260246000fd5b600060028204905060018216806109ba57607f821691505b6020821081036109cd576109cc610973565b5b50919050565b60008190508160005260206000209050919050565b60006020601f8301049050919050565b600082821b905092915050565b600060088302610a357fffffffffffffffffffffffffffffffffffffffffffffffffffffffffffffffff826109f8565b610a3f86836109f8565b95508019841693508086168417925050509392505050565b6000819050919050565b6000819050919050565b6000610a86610a81610a7c84610a57565b610a61565b610a57565b9050919050565b6000819050919050565b610aa083610a6b565b610ab4610aac82610a8d565b848454610a05565b825550505050565b600090565b610ac9610abc565b610ad4818484610a97565b505050565b5b81811015610af857610aed600082610ac1565b600181019050610ada565b5050565b601f821115610b3d57610b0e816109d3565b610b17846109e8565b81016020851015610b26578190505b610b3a610b32856109e8565b830182610ad9565b50505b505050565b600082821c905092915050565b6000610b6060001984600802610b42565b1980831691505092915050565b6000610b798383610b4f565b9150826002028217905092915050565b610b92826106e1565b67ffffffffffffffff811115610bab57610baa610512565b5b610bb582546109a2565b610bc0828285610afc565b600060209050601f831160018114610bf35760008415610be1578287015190505b610beb8582610b6d565b865550610c53565b601f198416610c01866109d3565b60005b82811015610c2957848901518255600182019150602085019450602081019050610c04565b86831015610c465784890151610c42601f891682610b4f565b8355505b6001600288020188555050505b50505050505056fea264697066735822122000b932cc1bf7cee5862eb730c16300ce38461d4525c97723b8aec52a3af5b08f64736f6c63430008130033",
  "immutableReferences": {},
  "source": "// SPDX-License-Identifier: MIT\npragma solidity >=0.4.22 <0.9.0;\n\ncontract ARWithIoT {\n\n  string[] _usernames;\n  string[] _passwords;\n\n  \n  mapping(string=>bool) _registeredUsers;\n\n  constructor() {\n  }\n\n  function addUser(string memory username,string memory password) public {\n    require(!_registeredUsers[username]);\n\n    _usernames.push(username);\n    _passwords.push(password);\n    _registeredUsers[username]=true;\n  }\n\n  function viewUsers() public view returns(string[] memory,string[] memory) {\n    return (_usernames,_passwords);\n  }\n\n  function ARWithIoTADXL(int value1,int value2,int value3) public pure returns(int) {\n    if((value1<1 && value1>=-1) && (value2<2 && value2>=0) && (value3<10 && value3>=9)) {\n      return (1);\n      }\n    else{\n      return (0);\n    }\n  }\n\n  function ARWithIoTBMP180(int value1,int value2) public pure returns(int){\n    if((value1>100990 && value1<101300) && (value2>31 && value2<35)){\n      return (1);\n      }\n    else{\n      return (0);\n    }\n  }\n\n  function ARWithIoTLDRandIR(int value1,int value2) public pure returns(int){\n    if(value1==1 && value2==0) {\n      return (1);\n      }\n    else if(value1==1 && value2==0){\n      return (2);\n    }\n    else if(value1==1 && value2==1){\n      return (3);\n    }\n    else{\n      return (0);\n    }\n  }\n}\n",
  "sourcePath": "C:\\Users\\Sudheer\\Downloads\\krishna\\krishna\\contracts\\ARWithIoT.sol",
  "compiler": {
    "name": "solc",
    "version": "0.8.19+commit.7dd6d404.Emscripten.clang"
  },
  "schemaVersion": "3.4.16",
  "updatedAt": "2024-03-09T07:38:47.246Z",
  "networkType": "ethereum",
  "devdoc": {
    "kind": "dev",
    "methods": {},
    "version": 1
  },
  "userdoc": {
    "kind": "user",
    "methods": {},
    "version": 1
  }
}